S01800004763634170706C69636174696F6E31392E7372656321
S11300000C942A000C9447000C9447000C9447006D
S11300100C9447000C9447000C9447000C94470040
S11300200C9447000C9447000C9447000C94470030
S11300300C9447000C9447000C9447000C94470020
S11300400C9447000C9447000C9447000C94470010
S11300500C94470011241FBECFE5D8E0DEBFCDBF0E
S113006010E0A0E6B0E0E0E2FEE002C005900D92F0
S1130070A039B107D9F710E0A0E9B0E001C01D92A2
S1130080A039B107E1F70E9489030C940E070C9480
S11300900000843409F471C0853448F4823499F141
S11300A0833408F04DC0813409F083C00FC0823618
S11300B051F1833620F4813609F07BC007C08336C2
S11300C009F43EC0843609F074C057C0413069F465
S11300D02AB381E090E0AC0102C0440F551F6A9539
S11300E0E2F7BA01622B6ABB08952AB381E090E07B
S11300F0AC0102C0440F551F6A95E2F7BA0160953E
S113010062236ABB0895413069F427B381E090E02B
S1130110AC0102C0440F551F6A95E2F7BA01622B85
S113012067BB089527B381E090E0AC0102C0440F9F
S1130130551F6A95E2F7BA016095622367BB08957B
S1130140413069F424B381E090E0AC0102C0440F73
S1130150551F6A95E2F7BA01622B64BB089524B374
S113016081E090E0AC0102C0440F551F6A95E2F7AC
S1130170BA016095622364BB0895413069F421B3E8
S113018081E090E0AC0102C0440F551F6A95E2F78C
S1130190BA01622B61BB089521B381E090E0AC0108
S11301A002C0440F551F6A95E2F7BA0160956223B5
S11301B061BB0895843409F471C0853448F48234F1
S11301C099F1833408F04DC0813409F083C00FC025
S11301D0823651F1833620F4813609F07BC007C0A2
S11301E0833609F43EC0843609F074C057C04130E8
S11301F069F42BB381E090E0AC0102C0440F551FB9
S11302006A95E2F7BA01622B6BBB08952BB381E0C8
S113021090E0AC0102C0440F551F6A95E2F7BA01A1
S1130220609562236BBB0895413069F428B381E083
S113023090E0AC0102C0440F551F6A95E2F7BA0181
S1130240622B68BB089528B381E090E0AC0102C042
S1130250440F551F6A95E2F7BA016095622368BBA3
S11302600895413069F425B381E090E0AC0102C007
S1130270440F551F6A95E2F7BA01622B65BB0895D6
S113028025B381E090E0AC0102C0440F551F6A958C
S1130290E2F7BA016095622365BB0895413069F4C1
S11302A022B381E090E0AC0102C0440F551F6A956F
S11302B0E2F7BA01622B62BB089522B381E090E0B9
S11302C0AC0102C0440F551F6A95E2F7BA0160956C
S11302D0622362BB0895843409F44EC0853440F42B
S11302E0823431F18334B0F5813409F057C00EC043
S11302F08236F1F0833620F4813609F04FC006C00F
S1130300833641F1843609F049C036C029B381E00F
S113031090E0062E02C0880F991F0A94E2F730E09D
S11303208223932302C0959587956A95E2F70895F1
S113033026B381E090E0062E02C0880F991F0A942C
S1130340E2F730E08223932302C0959587956A955E
S1130350E2F7089523B381E090E0062E02C0880FEF
S1130360991F0A94E2F730E08223932302C0959503
S113037087956A95E2F7089520B381E090E0062E10
S113038002C0880F991F0A94E2F730E08223932376
S113039002C0959587956A95E2F7089580E00895DF
S11303A0843409F43DC0853440F48234F9F0833454
S11303B050F5813409F040C00CC08236B9F0833660
S11303C018F48136C9F505C08336E9F08436A1F501
S11303D027C02BB381E090E0AC0102C0440F551F4D
S11303E06A95E2F7BA0162276BBB089528B381E0EE
S11303F090E0AC0102C0440F551F6A95E2F7BA01C0
S1130400622768BB089525B381E090E0AC0102C087
S1130410440F551F6A95E2F7BA01622765BB089538
S113042022B381E090E0AC0102C0440F551F6A95ED
S1130430E2F7BA01622762BB08958434D9F08534A7
S113044038F4823499F0833498F48134A1F40CC0E4
S1130450823661F0833618F4813669F405C0833638
S113046039F0843641F406C06ABB089567BB089529
S113047064BB089561BB08958434D9F0853438F49D
S1130480823499F0833498F48134A1F40CC0823618
S113049061F0833618F4813669F405C0833639F087
S11304A0843641F406C06BBB089568BB089565BBF0
S11304B0089562BB08958434D9F0853438F48234C5
S11304C099F0833498F48134A9F40CC0823661F035
S11304D0833618F4813671F405C0833639F08436D6
S11304E049F406C089B3089586B3089583B3089583
S11304F080B3089580E008950F931F93CF93C82F7E
S1130500062F462F417060E00E94490010E0A801C8
S113051042705070559547958C2F61E00E944900B8
S1130520A8014470507055954795559547958C2F63
S113053062E00E94490008701070A8015595479523
S113054055954795559547958C2F63E00E94490032
S1130550CF911F910F9108950F931F93CF93C82F9D
S1130560062F462F417064E00E94490010E0A80164
S113057042705070559547958C2F65E00E94490054
S1130580A8014470507055954795559547958C2F03
S113059066E00E94490008701070A80155954795BF
S11305A055954795559547958C2F67E00E944900CE
S11305B0CF911F910F9108950F931F93CF93C82F3D
S11305C0062F462F417060E00E94DA0010E0A80177
S11305D042705070559547958C2F61E00E94DA0067
S11305E0A8014470507055954795559547958C2FA3
S11305F062E00E94DA0008701070A80155954795D2
S113060055954795559547958C2F63E00E94DA00E0
S1130610CF911F910F9108950F931F93CF93C82FDC
S1130620062F462F417064E00E94DA0010E0A80112
S113063042705070559547958C2F65E00E94DA0002
S1130640A8014470507055954795559547958C2F42
S113065066E00E94DA0008701070A801559547956D
S113066055954795559547958C2F67E00E94DA007C
S1130670CF911F910F910895843409F43DC08534BE
S113068040F48234F9F0833450F5813409F040C0E9
S11306900CC08236B9F0833618F48136C9F505C02A
S11306A08336E9F08436A1F527C02BB381E090E0CE
S11306B0AC0102C0440F551F6A95E2F7BA01622BE0
S11306C06BBB089528B381E090E0AC0102C0440FF5
S11306D0551F6A95E2F7BA01622B68BB089525B3EA
S11306E081E090E0AC0102C0440F551F6A95E2F727
S11306F0BA01622B65BB089522B381E090E0AC019E
S113070002C0440F551F6A95E2F7BA01622B62BB1F
S113071008950E949F060E94C20580E690E00E9410
S113072078068FEF99E6A8E181509040A040E1F768
S113073000C0000082E061E00E94870680E790E04C
S11307400E9478068FEF9EE9A4E281509040A04079
S1130750E1F700C000000F2EFAE0EF2EFF24F02D89
S11307600F2EF4E6AF2EBB24F02D0F2EF0E38F2EC8
S11307709924F02D0E949F060E94DB05C82F8F3F0D
S1130780D9F38134B9F38D33A9F38B3299F38D32D4
S113079089F38F3279F38A3269F30E945C060E94EE
S11307A0DB05D82F8F3FD9F3813421F38D3311F337
S11307B08B3201F38D32F1F28F32E1F28A32D1F2CF
S11307C00E945C060E94DB05182F8F3FD9F3813409
S11307D089F28D3379F20E945C060E94DB05082FB2
S11307E08F3FD9F3813431F28D3321F28B3211F200
S11307F08D3209F4BFCF8F3209F4BCCF8A3209F4A9
S1130800B9CF0E945C060E94DB05D82E9FEF8917A2
S1130810D1F3A1E48A1709F4ADCFBDE38B1709F432
S1130820A9CF2BE2821709F4A5CF4DE2841709F46E
S1130830A1CF5FE2851709F49DCF8AE2D81609F4A7
S113084099CF8D2D0E945C060E94DB058F3FE1F35A
S11308508D3309F08FCF82E061E00E9487068DE33B
S11308600E945C061B3269F01C3220F41A3209F033
S113087084C1C3C01D3209F460C01F3209F07DC1B8
S11308801EC18C2F90E0880F991F9C01220F331FEB
S1130890220F331F820F931FAC014D0F511D802F68
S11308A090E0880F991F9C01220F331F220F331FE2
S11308B0820F931F8D0D911D840F951FEC01C05263
S11308C0D440CE0184569040A3E084389A07C8F4FB
S11308D0CE01B5010E94E706862F805D0E945C066A
S11308E0CE01B7010E94E706C82FCB01B7010E94D1
S11308F0E706805D0E945C068C2F805D0E945C068A
S11309003CC1CE010A978A35910570F4CE01B70136
S11309100E94E706C82F862F805D0E945C068C2FFC
S1130920805D0E945C0629C1CA30D1050CF025C146
S11309308C2F805D0E945C0620C18C2F90E0880F74
S1130940991F9C01220F331F220F331F820F931F05
S11309508D0F911DEC01C051D240802F90E046EFE5
S11309605FEF849F9001859F300D949F300D11247B
S113097020523E4FC4018D199109820F931FC80F55
S1130980D91FCE018456904053E084389507C8F4AB
S1130990CE01B5010E94E706862F805D0E945C06A9
S11309A0CE01B7010E94E706C82FCB01B7010E9410
S11309B0E706805D0E945C068C2F805D0E945C06C9
S11309C0DCC0CE010A978A35910570F4CE01B701D7
S11309D00E94E706C82F862F805D0E945C068C2F3C
S11309E0805D0E945C06C9C0CA30D1050CF0C5C048
S11309F08C2F805D0E945C06C0C08C2F90E0880F15
S1130A00991F9C01220F331F220F331F820F931F44
S1130A108D0F911DAC0140515240802F90E0880F02
S1130A20991F9C01220F331F220F331F820F931F24
S1130A308D0D911D80519240489FE001499FD00D3A
S1130A40589FD00D1124CE0184569040A3E08438E1
S1130A509A07C8F4CE01B5010E94E706862F805D8F
S1130A600E945C06CE01B7010E94E706C82FCB01A5
S1130A70B7010E94E706805D0E945C068C2F805DB2
S1130A800E945C067AC0CE010A978A35910570F4FB
S1130A90CE01B7010E94E706C82F862F805D0E9411
S1130AA05C068C2F805D0E945C0667C0CA30D1054D
S1130AB00CF063C08C2F805D0E945C065EC08C2F9E
S1130AC090E0880F991F9C01220F331F220F331FC0
S1130AD0820F931F8D0F911DAC0140515240802F06
S1130AE090E0880F991F9C01220F331F220F331FA0
S1130AF0820F931F8D0D911DBC0160517240CA017C
S1130B000E94E706CB01EB019B0124563040B3E081
S1130B1024383B07C0F4B5010E94E706862F805DA8
S1130B200E945C06CE01B7010E94E706C82FCB01E4
S1130B30B7010E94E706805D0E945C068C2F805DF1
S1130B400E945C061AC09B012A5030402A353105A8
S1130B5070F4CB01B7010E94E706C82F862F805D91
S1130B600E945C068C2F805D0E945C0606C06A3081
S1130B7071051CF4805D0E945C060E94DB058F3FBA
S1130B80E1F3F8CD84E46FE00E947C0284E460E049
S1130B900E94AC0284E464E00E943C0384E465E0C7
S1130BA00E943C0384E466E00E943C0384E467E022
S1130BB00E943C0308950F931F93CF93DF93CDB707
S1130BC0DEB760970FB6F894DEBF0FBECDBF8FEFD0
S1130BD091EEA4E081509040A040E1F700C00000F5
S1130BE0DE011196E0E8F0E080E101900D92815081
S1130BF0E1F700E084E46FE00E94DC0284E4602F0B
S1130C0040E00E94DA0010E0612F6C5F84E40E94EF
S1130C106B01882361F4E02FF0E0EE0FFF1FEE0F6D
S1130C20FF1FE10FF11DEC0FFD1F818107C01F5F46
S1130C30143051F70F5F0430E9F68FEF60960FB66A
S1130C40F894DEBF0FBECDBFDF91CF911F910F91FE
S1130C50089583E466E041E00E94DA008FE99FE0B2
S1130C600197F1F700C0000083E466E040E00E94D1
S1130C70DA008FE99FE00197F1F700C000000895C2
S1130C80CF93C82F682F62956F7083E40E94DC02B3
S1130C9083E464E040E00E94DA000E94290683E4D1
S1130CA06C2F0E94DC0283E464E040E00E94DA00DE
S1130CB00E942906CF910895CF93C82F682F62957B
S1130CC06F7083E40E94DC0283E464E041E00E94EC
S1130CD0DA000E94290683E46C2F0E94DC0283E47C
S1130CE064E041E00E94DA000E942906CF91089551
S1130CF0CF93DF93EC018881882331F021960E9401
S1130D005C0689918823D9F7DF91CF9108958130CA
S1130D1029F4862F81580E9440060895823021F4D8
S1130D20862F81540E944006089581E00E94400667
S1130D308FE19EE40197F1F700C0000008958FEF62
S1130D4091EEA4E081509040A040E1F700C0000083
S1130D5083E46FE00E947C0283E464E041E00E944B
S1130D60490083E465E041E00E94490083E466E0D1
S1130D7041E00E94490083E465E040E00E94DA001B
S1130D8082E00E944006AFECB7E01197F1F700C093
S1130D90000088E20E9440068FEC97E00197F1F78B
S1130DA000C000008CE00E944006AFECB7E0119751
S1130DB0F1F700C000000E94950686E00E944006FC
S1130DC08FEC97E00197F1F700C00000089597FBBE
S1130DD0092E07260AD077FD04D00CD006D00020B7
S1130DE01AF4709561957F4F0895F6F79095819563
S1130DF09F4F0895AA1BBB1B51E107C0AA1FBB1F2D
S1130E00A617B70710F0A61BB70B881F991F5A9592
S1130E10A9F780959095BC01CD010895F894FFCF72
S1130E20454C454354524F4E49432043414C4300A3
S1130E30206D61646520627920736865726966005B
S1130E403738392F3435362A3132332D41303D2B62
S9030000FC
