:100000000C942A000C9447000C9447000C94470071
:100010000C9447000C9447000C9447000C94470044
:100020000C9447000C9447000C9447000C94470034
:100030000C9447000C9447000C9447000C94470024
:100040000C9447000C9447000C9447000C94470014
:100050000C94470011241FBECFE5D8E0DEBFCDBF12
:1000600010E0A0E6B0E0E8EEFDE002C005900D92E1
:10007000A23DB107D9F710E0A2EDB0E001C01D929A
:10008000A23DB107E1F70E944B040C94F2060C94D8
:100090000000843409F471C0853448F4823499F145
:1000A000833408F04DC0813409F083C00FC082361C
:1000B00051F1833620F4813609F07BC007C08336C6
:1000C00009F43EC0843609F074C057C0413069F469
:1000D0002AB381E090E0AC0102C0440F551F6A953D
:1000E000E2F7BA01622B6ABB08952AB381E090E07F
:1000F000AC0102C0440F551F6A95E2F7BA01609542
:1001000062236ABB0895413069F427B381E090E02F
:10011000AC0102C0440F551F6A95E2F7BA01622B89
:1001200067BB089527B381E090E0AC0102C0440FA3
:10013000551F6A95E2F7BA016095622367BB08957F
:10014000413069F424B381E090E0AC0102C0440F77
:10015000551F6A95E2F7BA01622B64BB089524B378
:1001600081E090E0AC0102C0440F551F6A95E2F7B0
:10017000BA016095622364BB0895413069F421B3EC
:1001800081E090E0AC0102C0440F551F6A95E2F790
:10019000BA01622B61BB089521B381E090E0AC010C
:1001A00002C0440F551F6A95E2F7BA0160956223B9
:1001B00061BB0895843409F471C0853448F48234F5
:1001C00099F1833408F04DC0813409F083C00FC029
:1001D000823651F1833620F4813609F07BC007C0A6
:1001E000833609F43EC0843609F074C057C04130EC
:1001F00069F42BB381E090E0AC0102C0440F551FBD
:100200006A95E2F7BA01622B6BBB08952BB381E0CC
:1002100090E0AC0102C0440F551F6A95E2F7BA01A5
:10022000609562236BBB0895413069F428B381E087
:1002300090E0AC0102C0440F551F6A95E2F7BA0185
:10024000622B68BB089528B381E090E0AC0102C046
:10025000440F551F6A95E2F7BA016095622368BBA7
:100260000895413069F425B381E090E0AC0102C00B
:10027000440F551F6A95E2F7BA01622B65BB0895DA
:1002800025B381E090E0AC0102C0440F551F6A9590
:10029000E2F7BA016095622365BB0895413069F4C5
:1002A00022B381E090E0AC0102C0440F551F6A9573
:1002B000E2F7BA01622B62BB089522B381E090E0BD
:1002C000AC0102C0440F551F6A95E2F7BA01609570
:1002D000622362BB0895843409F44EC0853440F42F
:1002E000823431F18334B0F5813409F057C00EC047
:1002F0008236F1F0833620F4813609F04FC006C013
:10030000833641F1843609F049C036C029B381E013
:1003100090E0062E02C0880F991F0A94E2F730E0A1
:100320008223932302C0959587956A95E2F70895F5
:1003300026B381E090E0062E02C0880F991F0A9430
:10034000E2F730E08223932302C0959587956A9562
:10035000E2F7089523B381E090E0062E02C0880FF3
:10036000991F0A94E2F730E08223932302C0959507
:1003700087956A95E2F7089520B381E090E0062E14
:1003800002C0880F991F0A94E2F730E0822393237A
:1003900002C0959587956A95E2F7089580E00895E3
:1003A000843409F43DC0853440F48234F9F0833458
:1003B00050F5813409F040C00CC08236B9F0833664
:1003C00018F48136C9F505C08336E9F08436A1F505
:1003D00027C02BB381E090E0AC0102C0440F551F51
:1003E0006A95E2F7BA0162276BBB089528B381E0F2
:1003F00090E0AC0102C0440F551F6A95E2F7BA01C4
:10040000622768BB089525B381E090E0AC0102C08B
:10041000440F551F6A95E2F7BA01622765BB08953C
:1004200022B381E090E0AC0102C0440F551F6A95F1
:10043000E2F7BA01622762BB08958434D9F08534AB
:1004400038F4823499F0833498F48134A1F40CC0E8
:10045000823661F0833618F4813669F405C083363C
:1004600039F0843641F406C06ABB089567BB08952D
:1004700064BB089561BB08958434D9F0853438F4A1
:10048000823499F0833498F48134A1F40CC082361C
:1004900061F0833618F4813669F405C0833639F08B
:1004A000843641F406C06BBB089568BB089565BBF4
:1004B000089562BB08958434D9F0853438F48234C9
:1004C00099F0833498F48134A9F40CC0823661F039
:1004D000833618F4813671F405C0833639F08436DA
:1004E00049F406C089B3089586B3089583B3089587
:1004F00080B3089580E008950F931F93CF93C82F82
:10050000062F462F417060E00E94490010E0A801CC
:1005100042705070559547958C2F61E00E944900BC
:10052000A8014470507055954795559547958C2F67
:1005300062E00E94490008701070A8015595479527
:1005400055954795559547958C2F63E00E94490036
:10055000CF911F910F9108950F931F93CF93C82FA1
:10056000062F462F417064E00E94490010E0A80168
:1005700042705070559547958C2F65E00E94490058
:10058000A8014470507055954795559547958C2F07
:1005900066E00E94490008701070A80155954795C3
:1005A00055954795559547958C2F67E00E944900D2
:1005B000CF911F910F9108950F931F93CF93C82F41
:1005C000062F462F417060E00E94DA0010E0A8017B
:1005D00042705070559547958C2F61E00E94DA006B
:1005E000A8014470507055954795559547958C2FA7
:1005F00062E00E94DA0008701070A80155954795D6
:1006000055954795559547958C2F63E00E94DA00E4
:10061000CF911F910F9108950F931F93CF93C82FE0
:10062000062F462F417064E00E94DA0010E0A80116
:1006300042705070559547958C2F65E00E94DA0006
:10064000A8014470507055954795559547958C2F46
:1006500066E00E94DA0008701070A8015595479571
:1006600055954795559547958C2F67E00E94DA0080
:10067000CF911F910F910895843409F43DC08534C2
:1006800040F48234F9F0833450F5813409F040C0ED
:100690000CC08236B9F0833618F48136C9F505C02E
:1006A0008336E9F08436A1F527C02BB381E090E0D2
:1006B000AC0102C0440F551F6A95E2F7BA01622BE4
:1006C0006BBB089528B381E090E0AC0102C0440FF9
:1006D000551F6A95E2F7BA01622B68BB089525B3EE
:1006E00081E090E0AC0102C0440F551F6A95E2F72B
:1006F000BA01622B65BB089522B381E090E0AC01A2
:1007000002C0440F551F6A95E2F7BA01622B62BB23
:100710000895282F392F3FBB2EBB6DBB8FB78F7726
:100720008FBFE29AE19A8FB780688FBFE199FECFC1
:100730000895282F392F3FBB2EBBE09A8DB3089523
:1007400083E46FE00E947C0283E464E040E00E9466
:10075000490083E465E040E00E94490083E466E0EC
:1007600040E00E94490083E464E00E943C0383E48B
:1007700065E00E943C0383E466E00E943C03089528
:100780008FEF91EEA4E081509040A040E1F700C0CF
:10079000000083E460E040E00E94DA0083E461E06E
:1007A00041E00E94DA0083E462E041E00E94DA0066
:1007B00083E463E041E00E94DA009C9B54C09D9B6F
:1007C00054C09E9B54C083E460E041E00E94DA0084
:1007D00083E461E040E00E94DA0083E462E041E00B
:1007E0000E94DA0083E463E041E00E94DA009C9B0F
:1007F00040C09D9B40C09E9B40C083E460E041E0C0
:100800000E94DA0083E461E041E00E94DA0083E4C0
:1008100062E040E00E94DA0083E463E041E00E948D
:10082000DA009C9B2CC09D9B2CC09E9B2CC083E41B
:1008300060E041E00E94DA0083E461E041E00E9470
:10084000DA0083E462E041E00E94DA0083E463E0DE
:1008500040E00E94DA009C9B18C09D9B18C09E99A6
:1008600018C083E2089581E3089582E3089583E345
:10087000089584E3089585E3089586E3089587E362
:10088000089588E3089589E308958AE2089580E34E
:1008900008958FEF08952F923F924F925F926F923B
:1008A0007F928F929F92AF92BF92CF92DF92EF9200
:1008B000FF920F931F93CF93DF93CDB7DEB72E97A1
:1008C0000FB6F894DEBF0FBECDBF0E94AA060E94ED
:1008D000A00384E490E060E070E041E050E00E941A
:1008E000490084E490E061E070E041E050E00E9463
:1008F000490084E490E060E070E041E050E00E9454
:10090000DA000F2EF3E06F2EF02D0F2EF5E0AF2E54
:10091000BB24F02DAC0EBD1E2E010894411C511CB1
:10092000AB86BC86842C752CAD86BE860F2EFDE86A
:100930002F2EF0E03F2EF02D80E590E00E949903ED
:100940008F3F09F098C0DE011996BA87A9879924CC
:100950000E94A00681E063E00E94920680E690E09B
:100960000E94830682E066E00E9492066201082DE2
:10097000172D0E94C003F80180838F3FD1F30E949E
:1009800067068FEF92E5A7E081509040A040E1F725
:1009900000C0000080E10E944B068AE20E946706C8
:1009A0000F5F1F4F0A151B0521F70E94A0068DE659
:1009B00090E00E94830682E066E00E949206EB844B
:1009C000FC840D851E850E94C003D8018C938F3F47
:1009D000D1F30E9467068FEF92E5A7E08150904027
:1009E000A040E1F700C0000080E10E944B068AE2CF
:1009F0000E9467060F5F1F4FA985BA850A171B075C
:100A000011F7E82DF72D21E0D70191918D919813E1
:100A1000292DAE16BF06C9F7213099F400E210E087
:100A2000F60161916F01C8010E9489030F5F1F4F9A
:100A300004321105A9F780E590E060E00E94890387
:100A400013C00E94A00681E062E00E9492068EE739
:100A500090E00E9483068FEF93EDA0E381509040D9
:100A6000A040E1F700C0000080E590E00E949903FB
:100A70008F3F09F46DCF99240E94A00681E062E0C7
:100A80000E949206C1010E94830682E066E00E94F5
:100A900092066201082D172D0E94C003D8018C9385
:100AA0008F3FD1F30E9467068FEF92E5A7E0815058
:100AB0009040A040E1F700C0000080E10E944B069A
:100AC0008AE20E9467060F5F1F4F0A151B0521F778
:100AD000E82DF72D91E08191803309F0992DAE1624
:100AE000BF06C9F7913031F480E590E06FEF0E94C6
:100AF000890322CFEE24FF246894E5F8D6011D91E6
:100B00006D01C7010E949903181779F10E94A00690
:100B100081E063E00E9492068CE990E00E948306E7
:100B20008FEF99E6A8E181509040A040E1F700C026
:100B300000006A940E94A00681E063E00E94920691
:100B4000862D805D0E94670689EA90E00E948306F8
:100B50008FEF93EDA0E381509040A040E1F700C0FB
:100B60000000662009F088CF08C00894E11CF11C41
:100B700094E2E916F10411F626C00E94A00681E075
:100B800067E00E94920685EB90E00E94830682E077
:100B900068E00E94920619E3812F0E9467068FEF9A
:100BA00099E6A8E181509040A040E1F700C0000024
:100BB00080E10E944B061150103371F70F2EF3E0C5
:100BC0006F2EF02D59CF84E490E060E070E040E0BB
:100BD00050E00E94DA0084E490E061E070E041E0DF
:100BE00050E00E94DA000E94A00681E064E00E94CA
:100BF00092068AEB90E00E9483068FEF93EDA0E3CC
:100C000081509040A040E1F700C000000E94A00683
:100C100081E063E00E94920685EC90E00E948306EA
:100C20008FEF93EDA0E381509040A040E1F700C02A
:100C3000000080E090E02E960FB6F894DEBF0FBE65
:100C4000CDBFDF91CF911F910F91FF90EF90DF907B
:100C5000CF90BF90AF909F908F907F906F905F905C
:100C60004F903F902F90089582E466E041E00E940B
:100C7000DA008FE99FE00197F1F700C0000082E4FD
:100C800066E040E00E94DA008FE99FE00197F1F70B
:100C900000C000000895CF93C82F682F62956F7031
:100CA00082E40E94DC0282E464E040E00E94DA0018
:100CB0000E94340682E46C2F0E94DC0282E464E02D
:100CC00040E00E94DA000E943406CF910895CF934D
:100CD000C82F682F62956F7082E40E94DC0282E464
:100CE00064E041E00E94DA000E94340682E46C2F46
:100CF0000E94DC0282E464E041E00E94DA000E948B
:100D00003406CF910895CF93DF93EC018881882337
:100D100031F021960E94670689918823D9F7DF91E7
:100D2000CF910895813029F4862F81580E944B0677
:100D30000895823021F4862F81540E944B06089535
:100D400081E00E944B068FE19EE40197F1F700C01D
:100D5000000008958FEF91EEA4E081509040A040F4
:100D6000E1F700C0000082E46FE00E947C0282E4B0
:100D700064E041E00E94490082E465E041E00E94B5
:100D8000490082E466E041E00E94490082E465E0B7
:100D900040E00E94DA0082E00E944B06AFECB7E030
:100DA0001197F1F700C0000088E20E944B068FEC1B
:100DB00097E00197F1F700C000008CE00E944B061D
:100DC000AFECB7E01197F1F700C000000E94A00659
:100DD00086E00E944B068FEC97E00197F1F700C088
:080DE00000000895F894FFCF14
:100DE8007365742070617373776F726400636F6EDC
:100DF8006669726D207468652070617373006E6F28
:100E080074206964656E746963616C2100656E7431
:100E180065722074686520706173730077726F6EF5
:100E280067207061737320210020747269657320D4
:100E38006C656674007761697400766572696669C5
:100E480065642E2E0073616665206F70656E65643B
:020E5800000098
:00000001FF
